{
  "_format": "hh3-artifact-1",
  "contractName": "Stake",
  "sourceName": "contracts/Stake.sol",
  "abi": [
    {
      "inputs": [],
      "stateMutability": "nonpayable",
      "type": "constructor"
    },
    {
      "anonymous": false,
      "inputs": [
        {
          "indexed": true,
          "internalType": "address",
          "name": "owner",
          "type": "address"
        },
        {
          "indexed": true,
          "internalType": "address",
          "name": "spender",
          "type": "address"
        },
        {
          "indexed": false,
          "internalType": "uint256",
          "name": "value",
          "type": "uint256"
        }
      ],
      "name": "Approval",
      "type": "event"
    },
    {
      "anonymous": false,
      "inputs": [
        {
          "indexed": true,
          "internalType": "address",
          "name": "previousOwner",
          "type": "address"
        },
        {
          "indexed": true,
          "internalType": "address",
          "name": "newOwner",
          "type": "address"
        }
      ],
      "name": "OwnershipTransferred",
      "type": "event"
    },
    {
      "anonymous": false,
      "inputs": [
        {
          "indexed": false,
          "internalType": "address",
          "name": "account",
          "type": "address"
        }
      ],
      "name": "Paused",
      "type": "event"
    },
    {
      "anonymous": false,
      "inputs": [
        {
          "indexed": true,
          "internalType": "address",
          "name": "from",
          "type": "address"
        },
        {
          "indexed": true,
          "internalType": "address",
          "name": "to",
          "type": "address"
        },
        {
          "indexed": false,
          "internalType": "uint256",
          "name": "value",
          "type": "uint256"
        }
      ],
      "name": "Transfer",
      "type": "event"
    },
    {
      "anonymous": false,
      "inputs": [
        {
          "indexed": false,
          "internalType": "address",
          "name": "account",
          "type": "address"
        }
      ],
      "name": "Unpaused",
      "type": "event"
    },
    {
      "inputs": [
        {
          "internalType": "address",
          "name": "owner",
          "type": "address"
        },
        {
          "internalType": "address",
          "name": "spender",
          "type": "address"
        }
      ],
      "name": "allowance",
      "outputs": [
        {
          "internalType": "uint256",
          "name": "",
          "type": "uint256"
        }
      ],
      "stateMutability": "view",
      "type": "function"
    },
    {
      "inputs": [
        {
          "internalType": "address",
          "name": "spender",
          "type": "address"
        },
        {
          "internalType": "uint256",
          "name": "amount",
          "type": "uint256"
        }
      ],
      "name": "approve",
      "outputs": [
        {
          "internalType": "bool",
          "name": "",
          "type": "bool"
        }
      ],
      "stateMutability": "nonpayable",
      "type": "function"
    },
    {
      "inputs": [
        {
          "internalType": "address",
          "name": "account",
          "type": "address"
        }
      ],
      "name": "balanceOf",
      "outputs": [
        {
          "internalType": "uint256",
          "name": "",
          "type": "uint256"
        }
      ],
      "stateMutability": "view",
      "type": "function"
    },
    {
      "inputs": [
        {
          "internalType": "uint256",
          "name": "amount",
          "type": "uint256"
        }
      ],
      "name": "burn",
      "outputs": [],
      "stateMutability": "nonpayable",
      "type": "function"
    },
    {
      "inputs": [
        {
          "internalType": "address",
          "name": "account",
          "type": "address"
        },
        {
          "internalType": "uint256",
          "name": "amount",
          "type": "uint256"
        }
      ],
      "name": "burnFrom",
      "outputs": [],
      "stateMutability": "nonpayable",
      "type": "function"
    },
    {
      "inputs": [],
      "name": "decimals",
      "outputs": [
        {
          "internalType": "uint8",
          "name": "",
          "type": "uint8"
        }
      ],
      "stateMutability": "view",
      "type": "function"
    },
    {
      "inputs": [
        {
          "internalType": "address",
          "name": "spender",
          "type": "address"
        },
        {
          "internalType": "uint256",
          "name": "subtractedValue",
          "type": "uint256"
        }
      ],
      "name": "decreaseAllowance",
      "outputs": [
        {
          "internalType": "bool",
          "name": "",
          "type": "bool"
        }
      ],
      "stateMutability": "nonpayable",
      "type": "function"
    },
    {
      "inputs": [],
      "name": "handOutAwards",
      "outputs": [],
      "stateMutability": "nonpayable",
      "type": "function"
    },
    {
      "inputs": [
        {
          "internalType": "address",
          "name": "",
          "type": "address"
        }
      ],
      "name": "hasStaked",
      "outputs": [
        {
          "internalType": "bool",
          "name": "",
          "type": "bool"
        }
      ],
      "stateMutability": "view",
      "type": "function"
    },
    {
      "inputs": [
        {
          "internalType": "address",
          "name": "spender",
          "type": "address"
        },
        {
          "internalType": "uint256",
          "name": "addedValue",
          "type": "uint256"
        }
      ],
      "name": "increaseAllowance",
      "outputs": [
        {
          "internalType": "bool",
          "name": "",
          "type": "bool"
        }
      ],
      "stateMutability": "nonpayable",
      "type": "function"
    },
    {
      "inputs": [],
      "name": "interestRate",
      "outputs": [
        {
          "internalType": "uint256",
          "name": "",
          "type": "uint256"
        }
      ],
      "stateMutability": "view",
      "type": "function"
    },
    {
      "inputs": [
        {
          "internalType": "address",
          "name": "",
          "type": "address"
        }
      ],
      "name": "isCurrentlyStaking",
      "outputs": [
        {
          "internalType": "bool",
          "name": "",
          "type": "bool"
        }
      ],
      "stateMutability": "view",
      "type": "function"
    },
    {
      "inputs": [
        {
          "internalType": "address",
          "name": "to",
          "type": "address"
        },
        {
          "internalType": "uint256",
          "name": "amount",
          "type": "uint256"
        }
      ],
      "name": "mint",
      "outputs": [],
      "stateMutability": "nonpayable",
      "type": "function"
    },
    {
      "inputs": [],
      "name": "name",
      "outputs": [
        {
          "internalType": "string",
          "name": "",
          "type": "string"
        }
      ],
      "stateMutability": "view",
      "type": "function"
    },
    {
      "inputs": [],
      "name": "owner",
      "outputs": [
        {
          "internalType": "address",
          "name": "",
          "type": "address"
        }
      ],
      "stateMutability": "view",
      "type": "function"
    },
    {
      "inputs": [],
      "name": "pause",
      "outputs": [],
      "stateMutability": "nonpayable",
      "type": "function"
    },
    {
      "inputs": [],
      "name": "paused",
      "outputs": [
        {
          "internalType": "bool",
          "name": "",
          "type": "bool"
        }
      ],
      "stateMutability": "view",
      "type": "function"
    },
    {
      "inputs": [],
      "name": "renounceOwnership",
      "outputs": [],
      "stateMutability": "nonpayable",
      "type": "function"
    },
    {
      "inputs": [
        {
          "internalType": "uint256",
          "name": "_value",
          "type": "uint256"
        }
      ],
      "name": "setInterestRate",
      "outputs": [],
      "stateMutability": "nonpayable",
      "type": "function"
    },
    {
      "inputs": [
        {
          "internalType": "uint256",
          "name": "amount",
          "type": "uint256"
        }
      ],
      "name": "stake",
      "outputs": [],
      "stateMutability": "nonpayable",
      "type": "function"
    },
    {
      "inputs": [],
      "name": "stakedTokens",
      "outputs": [
        {
          "internalType": "uint256",
          "name": "",
          "type": "uint256"
        }
      ],
      "stateMutability": "view",
      "type": "function"
    },
    {
      "inputs": [
        {
          "internalType": "uint256",
          "name": "",
          "type": "uint256"
        }
      ],
      "name": "stakers",
      "outputs": [
        {
          "internalType": "address",
          "name": "",
          "type": "address"
        }
      ],
      "stateMutability": "view",
      "type": "function"
    },
    {
      "inputs": [
        {
          "internalType": "address",
          "name": "",
          "type": "address"
        }
      ],
      "name": "stakingBalance",
      "outputs": [
        {
          "internalType": "uint256",
          "name": "",
          "type": "uint256"
        }
      ],
      "stateMutability": "view",
      "type": "function"
    },
    {
      "inputs": [],
      "name": "symbol",
      "outputs": [
        {
          "internalType": "string",
          "name": "",
          "type": "string"
        }
      ],
      "stateMutability": "view",
      "type": "function"
    },
    {
      "inputs": [],
      "name": "totalSupply",
      "outputs": [
        {
          "internalType": "uint256",
          "name": "",
          "type": "uint256"
        }
      ],
      "stateMutability": "view",
      "type": "function"
    },
    {
      "inputs": [
        {
          "internalType": "address",
          "name": "to",
          "type": "address"
        },
        {
          "internalType": "uint256",
          "name": "amount",
          "type": "uint256"
        }
      ],
      "name": "transfer",
      "outputs": [
        {
          "internalType": "bool",
          "name": "",
          "type": "bool"
        }
      ],
      "stateMutability": "nonpayable",
      "type": "function"
    },
    {
      "inputs": [
        {
          "internalType": "address",
          "name": "from",
          "type": "address"
        },
        {
          "internalType": "address",
          "name": "to",
          "type": "address"
        },
        {
          "internalType": "uint256",
          "name": "amount",
          "type": "uint256"
        }
      ],
      "name": "transferFrom",
      "outputs": [
        {
          "internalType": "bool",
          "name": "",
          "type": "bool"
        }
      ],
      "stateMutability": "nonpayable",
      "type": "function"
    },
    {
      "inputs": [
        {
          "internalType": "address",
          "name": "newOwner",
          "type": "address"
        }
      ],
      "name": "transferOwnership",
      "outputs": [],
      "stateMutability": "nonpayable",
      "type": "function"
    },
    {
      "inputs": [],
      "name": "unpause",
      "outputs": [],
      "stateMutability": "nonpayable",
      "type": "function"
    },
    {
      "inputs": [],
      "name": "withdrawStakedTokens",
      "outputs": [],
      "stateMutability": "nonpayable",
      "type": "function"
    }
  ],
  "bytecode": "0x608060405234801561000f575f5ffd5b5060405180604001604052806004815260200163546f6b6b60e01b81525060405180604001604052806003815260200162544f4b60e81b815250816003908161005891906102d2565b50600461006582826102d2565b50506005805460ff191690555061007b336100ae565b61009e3360125b61008d90600a610485565b6100999061271061049a565b610107565b6100a9306012610082565b6104c4565b600580546001600160a01b03838116610100818102610100600160a81b031985161790945560405193909204169182907f8be0079c531659141344cd1fd0a4f28419497f9722a3daafe3b4186f6b6457e0905f90a35050565b6001600160a01b0382166101625760405162461bcd60e51b815260206004820152601f60248201527f45524332303a206d696e7420746f20746865207a65726f20616464726573730060448201526064015b60405180910390fd5b61016d5f83836101d4565b8060025f82825461017e91906104b1565b90915550506001600160a01b0382165f81815260208181526040808320805486019055518481527fddf252ad1be2c89b69c2b068fc378daa952ba7f163c4a11628f55a4df523b3ef910160405180910390a35050565b6101dc6101f3565b6101ee8383836001600160e01b038416565b505050565b60055460ff16156102395760405162461bcd60e51b815260206004820152601060248201526f14185d5cd8589b194e881c185d5cd95960821b6044820152606401610159565b565b634e487b7160e01b5f52604160045260245ffd5b600181811c9082168061026357607f821691505b60208210810361028157634e487b7160e01b5f52602260045260245ffd5b50919050565b601f8211156101ee57805f5260205f20601f840160051c810160208510156102ac5750805b601f840160051c820191505b818110156102cb575f81556001016102b8565b5050505050565b81516001600160401b038111156102eb576102eb61023b565b6102ff816102f9845461024f565b84610287565b6020601f821160018114610331575f831561031a5750848201515b5f19600385901b1c1916600184901b1784556102cb565b5f84815260208120601f198516915b828110156103605787850151825560209485019460019092019101610340565b508482101561037d57868401515f19600387901b60f8161c191681555b50505050600190811b01905550565b634e487b7160e01b5f52601160045260245ffd5b6001815b60018411156103db578085048111156103bf576103bf61038c565b60018416156103cd57908102905b60019390931c9280026103a4565b935093915050565b5f826103f15750600161047f565b816103fd57505f61047f565b8160018114610413576002811461041d57610439565b600191505061047f565b60ff84111561042e5761042e61038c565b50506001821b61047f565b5060208310610133831016604e8410600b841016171561045c575081810a61047f565b6104685f1984846103a0565b805f190482111561047b5761047b61038c565b0290505b92915050565b5f61049360ff8416836103e3565b9392505050565b808202811582820484141761047f5761047f61038c565b8082018082111561047f5761047f61038c565b611321806104d15f395ff3fe608060405234801561000f575f5ffd5b50600436106101d1575f3560e01c806379cc6790116100fe578063a9059cbb1161009e578063f2fde38b1161006e578063f2fde38b146103cf578063fa1ba12f146103e2578063fb50e901146103ea578063fd5e6dd11461040c575f5ffd5b8063a9059cbb1461037e578063c93c8f3414610391578063cb629009146103b3578063dd62ed3e146103bc575f5ffd5b80638da5cb5b116100d95780638da5cb5b1461032657806395d89b4114610350578063a457c2d714610358578063a694fc3a1461036b575f5ffd5b806379cc6790146103025780637c3a00fd146103155780638456cb591461031e575f5ffd5b806340c10f19116101745780635f84f302116101445780635f84f302146102b75780636a410610146102ca57806370a08231146102d2578063715018a6146102fa575f5ffd5b806340c10f191461026757806342966c681461027a57806345bc78ab1461028d5780635c975abb146102ac575f5ffd5b806323b872dd116101af57806323b872dd14610228578063313ce5671461023b578063395093511461024a5780633f4ba83a1461025d575f5ffd5b806306fdde03146101d5578063095ea7b3146101f357806318160ddd14610216575b5f5ffd5b6101dd61041f565b6040516101ea91906110f6565b60405180910390f35b610206610201366004611146565b6104af565b60405190151581526020016101ea565b6002545b6040519081526020016101ea565b61020661023636600461116e565b6104c8565b604051601281526020016101ea565b610206610258366004611146565b6104eb565b61026561050c565b005b610265610275366004611146565b61051e565b6102656102883660046111a8565b610534565b61021a61029b3660046111bf565b60096020525f908152604090205481565b60055460ff16610206565b6102656102c53660046111a8565b610541565b6102656105ad565b61021a6102e03660046111bf565b6001600160a01b03165f9081526020819052604090205490565b6102656106a8565b610265610310366004611146565b6106b9565b61021a60075481565b6102656106ce565b60055461010090046001600160a01b03165b6040516001600160a01b0390911681526020016101ea565b6101dd6106de565b610206610366366004611146565b6106ed565b6102656103793660046111a8565b610767565b61020661038c366004611146565b610838565b61020661039f3660046111bf565b600a6020525f908152604090205460ff1681565b61021a60065481565b61021a6103ca3660046111df565b610845565b6102656103dd3660046111bf565b61086f565b6102656108e5565b6102066103f83660046111bf565b600b6020525f908152604090205460ff1681565b61033861041a3660046111a8565b6109a6565b60606003805461042e90611210565b80601f016020809104026020016040519081016040528092919081815260200182805461045a90611210565b80156104a55780601f1061047c576101008083540402835291602001916104a5565b820191905f5260205f20905b81548152906001019060200180831161048857829003601f168201915b5050505050905090565b5f336104bc8185856109ce565b60019150505b92915050565b5f336104d5858285610af2565b6104e0858585610b6a565b506001949350505050565b5f336104bc8185856104fd8383610845565b610507919061125c565b6109ce565b610514610d17565b61051c610d77565b565b610526610d17565b6105308282610dc9565b5050565b61053e3382610e91565b50565b610549610d17565b5f81116105a85760405162461bcd60e51b815260206004820152602260248201527f5468657265206973206e6f20706f696e7420696e20686176696e672030207261604482015261746560f01b60648201526084015b60405180910390fd5b600755565b335f90815260096020526040902054806106095760405162461bcd60e51b815260206004820152601f60248201527f546865726520617265206e6f20746f6b656e7320746f20776974686472617700604482015260640161059f565b335f908152600960209081526040808320839055600b9091528120805460ff191690556006805483929061063e90849061126f565b909155505060405163a9059cbb60e01b815233600482015260248101829052309063a9059cbb906044016020604051808303815f875af1158015610684573d5f5f3e3d5ffd5b505050506040513d601f19601f820116820180604052508101906105309190611282565b6106b0610d17565b61051c5f610fc4565b6106c4823383610af2565b6105308282610e91565b6106d6610d17565b61051c61101d565b60606004805461042e90611210565b5f33816106fa8286610845565b90508381101561075a5760405162461bcd60e51b815260206004820152602560248201527f45524332303a2064656372656173656420616c6c6f77616e63652062656c6f77604482015264207a65726f60d81b606482015260840161059f565b6104e082868684036109ce565b6107723330836104c8565b508060065f828254610784919061125c565b9091555050335f90815260096020526040812080548392906107a790849061125c565b9091555050335f908152600a602052604090205460ff1661080457600c80546001810182555f919091527fdf6966c971051c3d54ec59162606531493a51404a002842f56009d7e5cf4a8c70180546001600160a01b031916331790555b50335f908152600a602090815260408083208054600160ff199182168117909255600b909352922080549091169091179055565b5f336104bc818585610b6a565b6001600160a01b039182165f90815260016020908152604080832093909416825291909152205490565b610877610d17565b6001600160a01b0381166108dc5760405162461bcd60e51b815260206004820152602660248201527f4f776e61626c653a206e6577206f776e657220697320746865207a65726f206160448201526564647265737360d01b606482015260840161059f565b61053e81610fc4565b6108ed610d17565b5f5b600c5481101561053e575f600c828154811061090d5761090d6112a1565b5f9182526020808320909101546007546001600160a01b039091168084526009909252604083205491935060649161094591906112b5565b61094f91906112cc565b6001600160a01b0383165f9081526009602052604081208054929350839290919061097b90849061125c565b925050819055508060065f828254610993919061125c565b9091555050600190920191506108ef9050565b600c81815481106109b5575f80fd5b5f918252602090912001546001600160a01b0316905081565b6001600160a01b038316610a305760405162461bcd60e51b8152602060048201526024808201527f45524332303a20617070726f76652066726f6d20746865207a65726f206164646044820152637265737360e01b606482015260840161059f565b6001600160a01b038216610a915760405162461bcd60e51b815260206004820152602260248201527f45524332303a20617070726f766520746f20746865207a65726f206164647265604482015261737360f01b606482015260840161059f565b6001600160a01b038381165f8181526001602090815260408083209487168084529482529182902085905590518481527f8c5be1e5ebec7d5bd14f71427d1e84f3dd0314c0f7b2291e5b200ac8c7c3b92591015b60405180910390a3505050565b5f610afd8484610845565b90505f198114610b645781811015610b575760405162461bcd60e51b815260206004820152601d60248201527f45524332303a20696e73756666696369656e7420616c6c6f77616e6365000000604482015260640161059f565b610b6484848484036109ce565b50505050565b6001600160a01b038316610bce5760405162461bcd60e51b815260206004820152602560248201527f45524332303a207472616e736665722066726f6d20746865207a65726f206164604482015264647265737360d81b606482015260840161059f565b6001600160a01b038216610c305760405162461bcd60e51b815260206004820152602360248201527f45524332303a207472616e7366657220746f20746865207a65726f206164647260448201526265737360e81b606482015260840161059f565b610c3b83838361105a565b6001600160a01b0383165f9081526020819052604090205481811015610cb25760405162461bcd60e51b815260206004820152602660248201527f45524332303a207472616e7366657220616d6f756e7420657863656564732062604482015265616c616e636560d01b606482015260840161059f565b6001600160a01b038481165f81815260208181526040808320878703905593871680835291849020805487019055925185815290927fddf252ad1be2c89b69c2b068fc378daa952ba7f163c4a11628f55a4df523b3ef910160405180910390a3610b64565b6005546001600160a01b0361010090910416331461051c5760405162461bcd60e51b815260206004820181905260248201527f4f776e61626c653a2063616c6c6572206973206e6f7420746865206f776e6572604482015260640161059f565b610d7f611067565b6005805460ff191690557f5db9ee0a495bf2e6ff9c91a7834c1ba4fdd244a5e8aa4e537bd38aeae4b073aa335b6040516001600160a01b03909116815260200160405180910390a1565b6001600160a01b038216610e1f5760405162461bcd60e51b815260206004820152601f60248201527f45524332303a206d696e7420746f20746865207a65726f206164647265737300604482015260640161059f565b610e2a5f838361105a565b8060025f828254610e3b919061125c565b90915550506001600160a01b0382165f81815260208181526040808320805486019055518481527fddf252ad1be2c89b69c2b068fc378daa952ba7f163c4a11628f55a4df523b3ef910160405180910390a35050565b6001600160a01b038216610ef15760405162461bcd60e51b815260206004820152602160248201527f45524332303a206275726e2066726f6d20746865207a65726f206164647265736044820152607360f81b606482015260840161059f565b610efc825f8361105a565b6001600160a01b0382165f9081526020819052604090205481811015610f6f5760405162461bcd60e51b815260206004820152602260248201527f45524332303a206275726e20616d6f756e7420657863656564732062616c616e604482015261636560f01b606482015260840161059f565b6001600160a01b0383165f818152602081815260408083208686039055600280548790039055518581529192917fddf252ad1be2c89b69c2b068fc378daa952ba7f163c4a11628f55a4df523b3ef9101610ae5565b600580546001600160a01b03838116610100818102610100600160a81b031985161790945560405193909204169182907f8be0079c531659141344cd1fd0a4f28419497f9722a3daafe3b4186f6b6457e0905f90a35050565b6110256110b0565b6005805460ff191660011790557f62e78cea01bee320cd4e420270b5ea74000d11b0c9f74754ebdbfc544b05a258610dac3390565b6110626110b0565b505050565b60055460ff1661051c5760405162461bcd60e51b815260206004820152601460248201527314185d5cd8589b194e881b9bdd081c185d5cd95960621b604482015260640161059f565b60055460ff161561051c5760405162461bcd60e51b815260206004820152601060248201526f14185d5cd8589b194e881c185d5cd95960821b604482015260640161059f565b602081525f82518060208401528060208501604085015e5f604082850101526040601f19601f83011684010191505092915050565b80356001600160a01b0381168114611141575f5ffd5b919050565b5f5f60408385031215611157575f5ffd5b6111608361112b565b946020939093013593505050565b5f5f5f60608486031215611180575f5ffd5b6111898461112b565b92506111976020850161112b565b929592945050506040919091013590565b5f602082840312156111b8575f5ffd5b5035919050565b5f602082840312156111cf575f5ffd5b6111d88261112b565b9392505050565b5f5f604083850312156111f0575f5ffd5b6111f98361112b565b91506112076020840161112b565b90509250929050565b600181811c9082168061122457607f821691505b60208210810361124257634e487b7160e01b5f52602260045260245ffd5b50919050565b634e487b7160e01b5f52601160045260245ffd5b808201808211156104c2576104c2611248565b818103818111156104c2576104c2611248565b5f60208284031215611292575f5ffd5b815180151581146111d8575f5ffd5b634e487b7160e01b5f52603260045260245ffd5b80820281158282048414176104c2576104c2611248565b5f826112e657634e487b7160e01b5f52601260045260245ffd5b50049056fea2646970667358221220d2a6bb80f105d49b975920edf992aa021fdc54237e10094b2bf4dd354c50d84264736f6c634300081c0033",
  "linkReferences": {},
  "deployedLinkReferences": {},
  "immutableReferences": {},
  "inputSourceName": "project/contracts/Stake.sol",
  "buildInfoId": "solc-0_8_28-98cbae65cf28d63dc937437a15ae08bbe3eb38a9"
}